:02000000F12AE3
:10000800FF00030E8301B7000A08B6008A017008D2
:10001800A7007108A6007208A5007308A400740858
:10002800A3007508A2007608A1000B1D4C280B112F
:10003800063081001010350AF0007008B5007D30D8
:100048003502031C4A283208F6003108F500F3018E
:10005800F4010F08F100F0010E08F0040030F1047B
:1000680070087304AD0071087404AE007508AF0021
:100078007608B0000030AF04B004B101B201B3019A
:10008800B4018F018E01B5010130A8001014662853
:100098000C1C66280C103108F0003208F1003308F7
:1000A800F2003408F300F00A0319F10A0319F20AFE
:1000B8000319F30A7008B1007108B2007208B3009E
:1000C8007308B4002708F0002608F1002508F2009C
:1000D8002408F3002308F4002208F5002108F6009C
:0E00E80036088A00370E8300FF0E7F0E0900D7
:1000F600103083120313FD00FD0B7F28000008005B
:10010600083083120313FC002330FD00FD0B892801
:06011600FC0B8928080023
:04011C0000000800D7
:1001200083120313D41B9628081097280814541B15
:100130009B2888109C288814D41AA0280811A1286C
:100140000815541AA5288811A62888153818AA2831
:100150008816AB28881208168E200812D419B228E7
:100160000810B32808145419B7288810B828881420
:10017000D418BC280811BD2808155418C1288811A6
:10018000C22888153818C6288816C7288812081665
:100190008E200812381CCE288320CF287B20080010
:0E01A000831203133A088A003908820008000F
:1001AE008312031338105308D4009020381408001B
:1001BE00F128803083120313CF000429C030CF0002
:1001CE0004299430CF000429D430CF000429803084
:1001DE00CF000429831203134F08013A0319E028B4
:1001EE004F08023A0319E5284F08033A0319E82885
:1001FE004F08043A0319EB28EE285003F0004F087D
:10020E00F0077008CF007008D40090203810D2018B
:10021E00520851078400000803191D29520851077E
:10022E0084000008D300D720D20A0F293814080002
:10023E0083120313FB01FA01F901F801A001730DFA
:10024E00F80D7408F8027508031C750FF90276088C
:10025E00031C760FFA027708031C770FFB020001CE
:10026E00031C0130A002F30D0730FC00730DF80DD6
:10027E00F90DFA0DFB0DA00D7408731C5829F80228
:10028E007508031C750FF9027608031C760FFA0227
:10029E007708031C770FFB020001031C0130A0023C
:1002AE006929F80775080318750FF90776080318FA
:1002BE00760FFA0777080318770FFB07000103186C
:1002CE000130A007F30DFC0B3D29720DF80DF90D51
:1002DE00FA0DFB0DA00D7408731C8729F802750822
:1002EE00031C750FF9027608031C760FFA027708C5
:1002FE00031C770FFB020001031C0130A00298299A
:10030E00F80775080318750FF90776080318760FA6
:10031E00FA0777080318770FFB070001031801305F
:10032E00A007F20D0730FC00720DF80DF90DFA0D55
:10033E00FB0DA00D7408721CB629F8027508031C7B
:10034E00750FF9027608031C760FFA027708031C64
:10035E00770FFB020001031C0130A002C729F8072A
:10036E0075080318750FF90776080318760FFA0744
:10037E0077080318770FFB07000103180130A00759
:10038E00F20DFC0B9B29710DF80DF90DFA0DFB0DFD
:10039E00A00D7408721CE529F8027508031C750F70
:1003AE00F9027608031C760FFA027708031C770F02
:1003BE00FB020001031C0130A002F629F8077508A4
:1003CE000318750FF90776080318760FFA077708E2
:1003DE000318770FFB07000103180130A007F10D7A
:1003EE000730FC00710DF80DF90DFA0DFB0DA00D87
:1003FE007408711C142AF8027508031C750FF90293
:10040E007608031C760FFA027708031C770FFB029F
:10041E000001031C0130A002252AF80775080318F5
:10042E00750FF90776080318760FFA077708031881
:10043E00770FFB07000103180130A007F10DFC0B2D
:10044E00F929700DF80DF90DFA0DFB0DA00D7408BC
:10045E00711C432AF8027508031C750FF902760801
:10046E00031C760FFA027708031C770FFB020001BC
:10047E00031C0130A002542AF80775080318750FE3
:10048E00F90776080318760FFA0777080318770F1F
:10049E00FB07000103180130A007F00D0730FC0028
:1004AE00700DF80DF90DFA0DFB0DA00D7408701CF2
:1004BE00722AF8027508031C750FF9027608031CE0
:1004CE00760FFA027708031C770FFB020001031C5C
:1004DE000130A002832AF80775080318750FF90773
:1004EE0076080318760FFA0777080318770FFB07BD
:1004FE00000103180130A007F00DFC0B572A7018ED
:10050E00962A7408F80775080318750FF907760808
:10051E000318760FFA0777080318770FFB07080002
:10052E00D0208A110A128000840AB90A0319BA0A65
:08053E00F003031D972A0800D9
:1005460083160313081288128811081188100810E0
:100556008312081288120810881008118811832047
:10056600832083200815881508168E2008128320FC
:1005760008168E200812832008168E200812832063
:10058600881108168E200812832008168E2008125D
:100596000811081408168E200812832008108815E2
:1005A60008168E200812881108168E20081283203D
:1005B60008168E200812881508168E200812832029
:1005C600881108168E200812081488140815881534
:0C05D60008168E2008128320381408003C
:1005E20083120313A801A901AA01AB01AC01AD0159
:1005F200AE01AF01B001B101B201B301B401B50165
:100602004630BB007230BC006530BD007130BE00A8
:100612003A30BF002030C0002030C1002030C2007C
:100622002030C3002030C4002030C5002030C60076
:100632002030C7002030C8004830C9007A30CA00D4
:10064200CB01CC01CD018316031788018901A322B6
:100652000130D40090200C30D40090208F018E0104
:100662000730900006308100843083168100E0302C
:100672008B0001308C00831228080319B42B2D083B
:10068200A9002E08AA002F08AB003008AC00AD016B
:10069200AE01AF01B001A8010D30CC0006304C0212
:1006A200031CAD2B4C083B3ECE000A30F400F50192
:1006B200F601F7012908F0002A08F1002B08F200E0
:1006C2002C08F3001F217808F0007908F1007A085D
:1006D200F2007B08F3003030F0074E088400700807
:1006E20080000A30F400F501F601F7012908F00054
:1006F2002A08F1002B08F2002C08F3001F217008D1
:10070200A9007108AA007208AB007308AC0000309F
:10071200F4007306031D972B74087206031D972BB2
:1007220074087106031D972B7008003A031DAB2B4A
:100732004C08063C0318AB2B4C03CD0006304D028F
:10074200031CAA2B4D083B3E840020308000CD03C1
:100752009F2BAD2BCC034F2B0130CF000130D000AB
:0A0762003B30D100DF203C2BB52B0B
:04400E00E22F000796
:00000001FF
